:100000000C9479020C94A1020C94A1020C94A1020C
:100010000C94A1020C94A1020C94A1020C946F0503
:100020000C94A1020C94A1020C94A1020C94A102C4
:100030000C94A1020C94A1020C94A1020C94A102B4
:100040000C94F2040C94A1020C941B040C94F50380
:100050000C94A1020C94A1020C94A1020C94A10294
:100060000C94A1020C94A1028080000101C84040C0
:10007000000202C82020000404C81010000808C8AC
:100080000808001010C80404002020C80202004024
:1000900040C80101008080C80000000000C80101C4
:1000A000008080C80202004040C80404002020C82C
:1000B0000808001010C81010000808C8202000040C
:1000C00004C84040000202C88080000101C800004E
:1000D000000000C88080808080C84040404040C808
:1000E0002020202020C81010101010C80808080870
:1000F00008C80404040404C80202020202C8010180
:10010000010101C80000000000C80101010101C88F
:100110000202020202C80404040404C80808080811
:1001200008C81010101010C82020202020C84040FF
:10013000404040C88080808080C80000000000C827
:100140001180800022C82200808011C84400010173
:1001500088C88801010044C80101010101C80303E6
:10016000030303C80606060606C80C0C0C0C0CC8D4
:100170001818181818C83030303030C86060606007
:1001800060C8C0C0C0C0C0C88080808080C8808077
:10019000808080C8C0C0C0C0C0C86060606060C8E7
:1001A0003030303030C81818181818C80C0C0C0C27
:1001B0000CC80606060606C80303030303C80101AC
:1001C000010101C800000000FF64000000FF00649E
:1001D0000000FF00006400FF00000064FF0000005A
:1001E0000064000000000064FF000000006400FFE5
:1001F000000000640000FF000064000000FF0064D5
:1002000000000000FF64000000000064FF00000028
:1002100000C8FFFF000000C8FFFFFF0000C8FFFF8D
:10022000FFFF00C8FFFFFFFFFFC88181818181C8F8
:10023000C3C3C3C3C3C8E7E7E7E7E7C8FFFFFFFFE0
:10024000FFC80000000000C88181818181C8C3C34C
:10025000C3C3C3C8E7E7E7E7E7C8FFFFFFFFFFC87F
:100260000000000000C860412214182442035060BE
:1002700021120C142241483050110A0C122144283A
:10028000304809060A1142241828440506092001AD
:100290000204102040011040010204102040081008
:1002A0004001020810200408204001020810020446
:1002B00008204001040800000000000404040004B9
:1002C0000102000000060F060F06070A06050E07CA
:1002D0000E04070E0205060A05000A0000000408C5
:1002E000080804040202020400060F0600000207C8
:1002F000020000000002040000000F0000000000E7
:10030000040101020408060B0F0D06020602020298
:100310000E0106080F0E0106010E02060A0F020F5B
:10032000080E010E06080E09060F01020408060950
:1003300006090606090F0106000400040000040077
:1003400004080204080402000F000F000402010266
:10035000040609020002060D0B080606090F09092A
:100360000E090E090E06090809060E0909090E0FE5
:10037000080E080F0F080E080806080B09060909E1
:100380000F09090E0404040E0101010906090A0CF3
:100390000A09080808080F090F0F0909090D0F0BB2
:1003A0000906090909060E090E08080609090B07BE
:1003B0000E090E0A09070806010E0E0404040409BA
:1003C00009090906090909060609090F0F0909099A
:1003D00006090909050202020F0204080F0E0808A7
:1003E000080E08080402010701010107040A0000C1
:1003F00000000000000F040200000000050B0B05C8
:1004000000050B0B05000708080701010709070095
:10041000060F080703040E0404070907010708086C
:100420000E090900020002060100010106080A0C7B
:100430000A090C0404040E00090F0F09000E090933
:10044000090006090906000E090E08000609070141
:10045000000B0C0808000704020E040E040403003D
:1004600009090906000909060600090F0F06000917
:100470000606090009070106000F02040F06040C16
:10048000040604040004040C0406040C0000050A1D
:1004900000000000000000000000230026002900EA
:1004A00000000000240027002A00000000002500B2
:1004B00028002B00040404040404040402020202C1
:1004C0000202030303030303010204081020408017
:1004D0000102040810200102040810200000000896
:1004E00000020100000304070000000000000000FB
:1004F0005D1811241FBECFEFD8E0DEBFCDBF11E0E5
:10050000A0E0B1E0E8EDF7E302C005900D92A0395C
:10051000B107D9F724E0A0E9B1E001C01D92AE33E4
:10052000B207E1F712E0C9E7D2E004C02197FE016B
:100530000E944319C837D107C9F70E94750B0C9464
:10054000EA1B0C940000CF92DF92EF92FF920F9380
:100550001F93CF93DF936C017A018B01C0E0D0E051
:10056000CE15DF0589F0D8016D918D01D601ED9191
:10057000FC910190F081E02DC6010995892B11F4C1
:100580007E0102C02196ECCFC701DF91CF911F9170
:100590000F91FF90EF90DF90CF900895FC01918D27
:1005A000828D981761F0828DDF01A80FB11D5D96D5
:1005B0008C91928D9F5F9F73928F90E008958FEF43
:1005C0009FEF0895FC01918D828D981731F0828DF7
:1005D000E80FF11D858D90E008958FEF9FEF08954E
:1005E000FC01918D228D892F90E0805C9F4F821BB2
:1005F00091098F73992708958DEA92E00E94F00285
:1006000021E0892B09F420E0822F0895FC01848DDC
:10061000DF01A80FB11DA35ABF4F2C91848D90E02C
:1006200001968F739927848FA689B7892C93A08907
:10063000B1898C9180648C93938D848D981306C0BE
:100640000288F389E02D80818F7D80830895EF9269
:10065000FF920F931F93CF93DF93EC0181E0888F7C
:100660009B8D8C8D981305C0E889F989808185FD63
:1006700024C0F62E0B8D10E00F5F1F4F0F73112754
:10068000E02E8C8DE8120CC00FB607FCFACFE8897B
:10069000F989808185FFF5CFCE010E940603F1CF55
:1006A0008B8DFE01E80FF11DE35AFF4FF0820B8F97
:1006B000EA89FB898081806207C0EE89FF896083B7
:1006C000E889F98980818064808381E090E0DF910E
:1006D000CF911F910F91FF90EF900895CF93DF93EB
:1006E000EC01888D8823C9F0EA89FB89808185FD2A
:1006F00005C0A889B9898C9186FD0FC00FB607FC8B
:10070000F5CF808185FFF2CFA889B9898C9185FFCB
:10071000EDCFCE010E940603E7CFDF91CF91089580
:1007200080E090E0892B29F00E94FC0281110C945A
:1007300000000895833081F028F4813099F08230F0
:10074000A1F008958730A9F08830B9F08430D1F451
:10075000809180008F7D03C0809180008F7780938F
:100760008000089584B58F7702C084B58F7D84BDE5
:1007700008958091B0008F7703C08091B0008F7D85
:100780008093B00008951F93CF93DF93282F30E01C
:10079000F901E452FB4F8491F901E853FB4FD491E6
:1007A000F901EC54FB4FC491CC23C9F0162F8111F1
:1007B0000E949A03EC2FF0E0EE0FFF1FE655FB4F6F
:1007C000A591B4918FB7F894111105C09C91ED2FAC
:1007D000E095E92302C0EC91ED2BEC938FBFDF9104
:1007E000CF911F9108950E94911B1F920F920FB6F7
:1007F0000F9211242F933F934F935F936F937F93A7
:100800008F939F93AF93BF93EF93FF938DEA92E003
:100810000E940603FF91EF91BF91AF919F918F913D
:100820007F916F915F914F913F912F910F900FBEEC
:100830000F901F9018951F920F920FB60F921124D0
:100840002F938F939F93EF93FF93E091BD02F091CD
:10085000BE028081E091C302F091C40282FD12C009
:1008600090818091C6028F5F8F732091C70282179B
:1008700051F0E091C602F0E0E355FD4F958F809373
:10088000C60201C08081FF91EF919F918F912F91BE
:100890000F900FBE0F901F901895CF93DF9390E0AD
:1008A000FC01E853FB4F2491FC01EC54FB4F849175
:1008B000882361F190E0880F991FFC01E056FB4FFF
:1008C000C591D491FC01E655FB4FA591B4916111FE
:1008D00009C09FB7F8948881209582238883EC9182
:1008E0002E230BC0623061F49FB7F8943881822FB9
:1008F000809583238883EC912E2B2C939FBF06C079
:100900008FB7F894E8812E2B28838FBFDF91CF918A
:1009100008959FB7F8944091550250915602609106
:1009200057027091580286B5A89B06C08F3F21F0F0
:100930004F5F5F4F6F4F7F4F9FBF762F652F542FB5
:1009400044279A01AB01280F311D411D511DA5E01F
:10095000B0E00E94DF1808958F929F92AF92BF92ED
:10096000CF92DF92EF92FF926B017C010E9489048B
:100970004B015C01C114D104E104F104F1F00E94C7
:100980008904DC01CB0188199909AA09BB09883EB1
:100990009340A105B10570F321E0C21AD108E10826
:1009A000F10888EE880E83E0981EA11CB11CC114CA
:1009B000D104E104F10419F7DDCFFF90EF90DF904F
:1009C000CF90BF90AF909F908F9008952FB7F894DD
:1009D00060915102709152028091530290915402A1
:1009E0002FBF08951F920F920FB60F9211242F93CD
:1009F0003F938F939F93AF93BF93809151029091B8
:100A00005202A0915302B0915402309150022DE253
:100A1000230F2D3720F40196A11DB11D05C020EB39
:100A2000230F0296A11DB11D209350028093510205
:100A300090935202A0935302B093540280915502B6
:100A400090915602A0915702B09158020196A11DB3
:100A5000B11D8093550290935602A0935702B09314
:100A60005802BF91AF919F918F913F912F910F901D
:100A70000FBE0F901F9018958F929F92AF92BF92CA
:100A8000CF92DF92EF92FF926B017C010E9489046A
:100A90004B015C0184E0C81AD108E108F108C80CD8
:100AA000D91CEA1CFB1CC814D904EA04FB0438F462
:100AB0000E94890486169706A806B906C8F30E9404
:100AC00089046C157D058E059F05C8F3FF90EF9096
:100AD000DF90CF90BF90AF909F908F9008951F921E
:100AE0000F920FB60F9211242F933F934F935F9362
:100AF0006F937F938F939F93AF93BF93CF93DF9326
:100B0000EF93FF9320914B0330E0F901E452FB4F48
:100B10008491F901E853FB4FD491F901EC54FB4F58
:100B2000C491CC23A1F081110E949A03EC2FF0E034
:100B3000EE0FFF1FEA56FB4FA591B491EC91ED2308
:100B400031E020E009F430E0832F922F02C080E0F2
:100B500090E020914F03309150032F5F3F4F30932F
:100B6000500320934F0320914E03253618F026E0C2
:100B700020934A0320914A032430D9F128F42230EB
:100B800069F02330D9F060C0253009F453C0263015
:100B900009F05AC021E020931B0453C0009709F0CC
:100BA00053C020914F03309150032436310508F48F
:100BB00043C010921B0410924E031DC0813091055A
:100BC00009F042C0E0914E0321E02E0F20934E0326
:100BD000F0E020914F0330915003EE0FFF1FE65BD2
:100BE000FC4F308727831092500310924F0324E06C
:100BF00029C00097B9F4E0914E0321E02E0F209315
:100C00004E03F0E020914F0330915003EE0FFF1F91
:100C1000E65BFC4F308727831092500310924F03FE
:100C200023E010C020914F03309150032536310549
:100C300058F007C0009741F41092500310924F03F0
:100C400003C025E020934A0320914D032223B9F0ED
:100C5000892B51F480914C03882321F080914C031F
:100C600061E009C02D9A0BC080914C03882331F0BC
:100C700080914C0360E00E94C30301C02D98FF9156
:100C8000EF91DF91CF91BF91AF919F918F917F9124
:100C90006F915F914F913F912F910F900FBE0F90E9
:100CA0001F901895CF92DF92EF92FF92CF93DF9330
:100CB000EC01072E000C880B990B0E94741A6B0133
:100CC0007C0120E030E040E45FE30E94241B20E050
:100CD00030E048E452E40E94CA190E943C1AC61748
:100CE000D707D4F020E030E040EA5FE3C701B60167
:100CF0000E94241B20E030E048E452E40E94CA191C
:100D000020E030E040E85FE30E9459190E943C1A5D
:100D100021E06C177D070CF420E0822F90E0DF913A
:100D2000CF91FF90EF90DF90CF900895CF93C62F93
:100D300020E2E3E2F2E0DF011D922A95E9F7462F77
:100D400050E0BC01CF010E94961BC0931D02CF91C1
:100D5000089510921D0210924B0210924A021092B6
:100D600044021092430210924C0210924D021092D3
:100D70004E0210924F0285E0EEE1F2E0DF011D929B
:100D80008A95E9F708950F931F93CF93DF938C0112
:100D9000EB010E94D41B8883C80101960E94D41BDA
:100DA0008983CE01DF91CF911F910F910895CF9349
:100DB000DF93C9E5D2E080E090E03C2F305CE99120
:100DC000AE2FAF70B0E0A25ABE4F4C91F0E024E0DD
:100DD000F595E7952A95E1F7E25AFE4F2081240F19
:100DE000820F911D3C13EBCFDF91CF910895EF92CD
:100DF000FF920F931F93CF93DF931F92CDB7DEB770
:100E00007C01FC0100811181C80169830E94D41B0F
:100E10006981681719F0C8010E94DC1BC7010F9097
:100E2000DF91CF911F910F91FF90EF900895EF9276
:100E3000FF920F931F93CF93DF9300D0CDB7DEB710
:100E40008C017B01FB0160819A838983CE0101962D
:100E50000E94F706F70161810F5F1F4F1A83098314
:100E6000CE0101960E94F706C7010F900F90DF9107
:100E7000CF911F910F91FF90EF9008958F929F92C5
:100E8000AF92BF92CF92DF92EF92FF92CF93DF9318
:100E90004B015C011092700061E083E00E944D0400
:100EA00060E083E00E94C30381E08093B00089E0AA
:100EB0008093B10086E98093B30082E38093B4000D
:100EC0008091B00080628093B00060E679E080E0BD
:100ED00090E00E943C050E94090AC4E1D0E0C12CC8
:100EE000D12C98E0E92EF12CD701C6018821992157
:100EF000AA21BB21892B8A2B8B2B51F08091B0002A
:100F000080628093B00060EB74E080E090E009C004
:100F10008091B00080628093B00068E572E080E06C
:100F200090E00E943C050E94090AF694E794D79449
:100F3000C7942197C9F66FE070E080E090E00E94CE
:100F4000AC04DF91CF91FF90EF90DF90CF90BF90F6
:100F5000AF909F908F900C94F309CF93DF93C8ECE0
:100F6000D1E080E090E0FC01E257FD4FE491A82F32
:100F7000A695A695A695B0E0A85EBD4F2C9130E051
:100F8000482F477002C0359527954A95E2F7DC0156
:100F9000A051BE4F20FF02C0EC9301C01C92FC0187
:100FA000EA59FD4FE491E993019688329105D9F60B
:100FB000DF91CF9108958091C701883210F010928F
:100FC000C701E091C701F0E0E051FE4F808190E061
:100FD00024E0959587952A95E1F7E091C701F0E027
:100FE000E853FE4F208130E044E0359527954A953F
:100FF000E1F7E091C701F0E0E051FE4F408140FD94
:1010000002C050E001C058E0E091C701F0E0E853B1
:10101000FE4F408140FD02C060E001C068E0E09109
:10102000C701F0E0E051FE4F9081E091C701F0E090
:10103000E853FE4F308144B1487F44B944B1242B7A
:1010400024B93B9827B1262B27B92AB12F782AB982
:101050004AB1232F2E70220F220F220F242B2AB9E0
:1010600025B1287F25B925B1822B85B9439888B150
:10107000852B88B98BB18F788BB92BB1892F8E7066
:10108000880F880F880F822B8BB98091C7018F5FE3
:101090008093C7010895DC018C91E8E1F2E0808340
:1010A00011968C911197818312968C91129782835D
:1010B00013968C911397838314968C91848308954F
:1010C0000F931F930E94E60400914C0210914D0271
:1010D00020914E0230914F02DC01CB01801B910B1D
:1010E000A20BB30B893C9105A105B10508F4A0C082
:1010F0000E94E60460934C0270934D0280934E026E
:1011000090934F0220914A0230914B0221153105F4
:1011100029F585E0E5E4F2E0DF011D928A95E9F723
:10112000109244021092430280912302DF0145E0B5
:101130008402C001112440E050E0805A9109FC0172
:10114000E40FF51FEA54FD4FE491E295E07FED9343
:101150004F5F5F4F4530510591F71AC0A5E4B2E0EB
:10116000EEE1F2E055E05E0F808190E09595879585
:1011700080834C9147FF02C080688083440F4D9369
:1011800031965E13F1CF809143028F5F80934302CB
:101190002F5F3F4F30934B0220934A0280914302CE
:1011A000853008F43DC010924302809144028F5F65
:1011B0008093440290911D02282F30E0492F50E087
:1011C0004D5F5F4F421753072CF410924B02109261
:1011D0004A0226C0891740F085E0E5E4F2E0DF012D
:1011E0001D928A95E9F71CC0F901ED5DFD4F8081E4
:1011F000A5E4B2E025E08202C001112420E030E045
:10120000805A9109FC01E20FF31FEA54FD4FE4916B
:10121000E295E07FED932F5F3F4F2530310591F749
:101220008EE192E00E944B081F910F910C94AD0744
:101230001F910F9108958F7090919001E82FE927E9
:10124000F0E0E25BFE4F8081809390010895CF92A1
:10125000DF92EF92FF926B017C0110929001662762
:1012600077278F7099270E941B09D701C6012CE0B0
:10127000B695A795979587952A95D1F78F700E9477
:101280001B09D701C60188279F70AA27BB27892F72
:101290000E941B09D701C601807F9927AA27BB2777
:1012A00034E0B695A795979587953A95D1F7FF9035
:1012B000EF90DF90CF900C941B09CF92DF92EF92CA
:1012C000FF920F931F93CF93DF9300D000D01F9214
:1012D000CDB7DEB7DC0112962C91222309F458C059
:1012E0008C010E94E604F801C580D680E780F08476
:1012F000AB01BC014C195D096E097F09838190E047
:10130000A0E0B0E084179507A607B70708F040C033
:10131000218181859285F6E02F9F800D911D1124FA
:10132000FC013596E491D8011396EC931397FC01D8
:10133000349139833196E491EA83FC013296E49149
:10134000EB83FC013396E491EC83FC013496E49149
:10135000ED832F5F11962C9311978C91281748F0ED
:1013600014968C911497882311F012961C92F80110
:101370001182CE0101960E944B080E94AD070E9487
:10138000E604D80115966D937D938D939C931897E1
:101390000F900F900F900F900F90DF91CF911F91B2
:1013A0000F91FF90EF90DF90CF900895CF93DF9350
:1013B00000D000D01F92CDB7DEB7FC01128211829F
:1013C000CE01019625E0FC0111922A95E9F70E94D1
:1013D0004B080E94AD070F900F900F900F900F9049
:1013E000DF91CF910895F89482E08093B0008093CC
:1013F000B1009BE49093B3001092B2008093700010
:101400007894EAE4F3E080831482818160E00C94B4
:101410004D04E0EBF0E080818F7D808368E572E031
:1014200080E090E00C943C0581E1EFE1F1E0ABE974
:10143000B2E001900D928A95E1F70895AF92BF92C4
:10144000CF92DF92EF92FF920F931F93CF93DF9390
:10145000A82EEB0192EF980F8DE08A1508F09A2DD7
:1014600097709064B92E00E010E0C12CD12C760169
:101470000C171D07BCF562E08A2D0E944D04809177
:101480007C008F6180937C0080917A0080648093DF
:101490007A0080917A0084FFFCCF80917A0080618D
:1014A00080937A0060E08A2D0E944D04B0927C0007
:1014B00080917A00806480937A0080917A0086FD22
:1014C000FCCF409178008091790050E0582B052E98
:1014D000000C660B770BC40ED51EE61EF71E0F5FC1
:1014E0001F4FC6CF9E01DD0F440B550BC701B60140
:1014F0000E94C018C901DF91CF911F910F91FF90F9
:10150000EF90DF90CF90BF90AF90089580E090E093
:101510000E94D41B8093990289E992E00895EF928A
:10152000FF920F931F93CF93DF9300D0CDB7DEB719
:101530008FE1E82E81E0F82E02EC10E0F7016191D6
:101540007F011A830983CE0101960E94F7060F5F7F
:101550001F4F033D110591F78FE191E00F900F9020
:10156000DF91CF911F910F91FF90EF900895EF922F
:10157000FF920F931F93CF93DF9300D0CDB7DEB7C9
:1015800089E5E82E82E0F82E00E810E0F70161918D
:101590007F011A830983CE0101960E94F7060F5F2F
:1015A0001F4F003C110591F789E592E00F900F90D5
:1015B000DF91CF911F910F91FF90EF9008958F923F
:1015C0009F92AF92BF92CF92DF92EF92FF920F93D2
:1015D0001F93CF93DF93DB01CD91DC91DC011C964F
:1015E000ED91FC911D97CE17DF070CF04AC0FE016C
:1015F000EE0FFF1F1A968D919C911B97E80FF91F14
:1016000080809180C170DD27B1E0CB27209719F44D
:1016100004E610E002C00CE91FEF79015A016B01EA
:10162000020F131FB801C4010E945206892B99F4BE
:101630000E0D1F1DB801C4010E945206892B71F4C2
:10164000B8016E0D7F1DC4010E945206892BE1F086
:1016500023E030E005C021E030E002C022E030E0CD
:10166000F5018081918101968217930734F01182F0
:101670001082F60180819181019691838083CE0151
:1016800005C081E090E002C08FEF9FEFDF91CF9126
:101690001F910F91FF90EF90DF90CF90BF90AF9090
:1016A0009F908F900895CF93DF93009779F0FC017E
:1016B00001900020E9F73197AF01481B590BBC019D
:1016C0008DEA92E00E94A302EC0102C0C0E0D0E0EB
:1016D00042E050E06CE871E08DEA92E00E94A302E3
:1016E0008C0F9D1FDF91CF910895CF93DF93CDB7DE
:1016F000DEB7E5970FB6F894DEBF0FBECDBF789486
:1017000084B5826084BD84B5816084BD85B5826006
:1017100085BD85B5816085BD80916E0081608093B7
:101720006E00109281008091810082608093810020
:101730008091810081608093810080918000816030
:10174000809380008091B10084608093B10080918B
:10175000B00081608093B00080917A0084608093B3
:101760007A0080917A00826080937A0080917A007A
:101770008E7F80937A0080917A00806880937A00CF
:101780001092C100E091BD02F091BE0282E0808320
:10179000E091B902F091BA021082E091BB02F0919F
:1017A000BC028BE980831092C502E091C102F091E6
:1017B000C20286E08083E091BF02F091C002808186
:1017C00080618083E091BF02F091C00280818860D7
:1017D0008083E091BF02F091C002808180688083A5
:1017E000E091BF02F091C00280818F7D808361E033
:1017F00081E10E944D0461E084E00E944D0461E0BB
:1018000085E00E944D0461E086E00E944D0461E0A5
:1018100088E00E944D0461E089E00E944D0461E08F
:101820008AE00E944D0480E091E00E944B080E94F3
:10183000AD070E94F309E9E5F2E020E42E0F2DAB9D
:1018400011923DA93E13FCCF84E091E09093920168
:1018500080939101BE016F5F7F4F84ED90E00E9405
:10186000C30689819A8182349244B1F082E492E481
:101870009A838983BE016F5F7F4F84ED90E00E9461
:10188000170761E971E080EC90E00E9417070E9461
:10189000B70A0E948F0A28C061E971E080EC90E0ED
:1018A0000E94C306F9E5EF2EF2E0FF2E00E810E0FB
:1018B000C8010E94D41BD7018D937D010F5F1F4F7C
:1018C000003C1105A9F7EFE1EE2EE1E0FE2E02EC5F
:1018D00010E0C8010E94D41BF70181937F010F5FC4
:1018E0001F4F033D1105A9F70E94860A64EF71E0BE
:1018F0008EE00E941E0A90939C0180939B0164EFEE
:1019000071E08FE00E941E0A90939A0180939901E2
:1019100064EF71E080E10E941E0A90939801809329
:1019200097011092330410923404109235041092EF
:1019300038041092390410923A0410923B04109229
:101940003604109237041092280410922904109241
:101950002A0410922D0410922E0410922F0410923B
:10196000300410922B0410922C0410921D0410923B
:101970001E0410921F04109222041092230410924D
:10198000240410922504109220041092210488E26D
:1019900094E00E94D60988EE91E0909332048093FF
:1019A000310486E0809328041092290481E080931A
:1019B0002A0480932C0480912A04882339F088E239
:1019C00094E00E945D090E94DB07F5CF88E294E075
:1019D0000E94D60984EC91E0909332048093310404
:1019E00086E0809328041092290481E080932A04E1
:1019F00010922C040E94140A60E072E281E090E0F0
:101A00000E9427098F7090E0A0E0B0E0BC01CD01FA
:101A1000726281600E943E0772E0272E312C9E0187
:101A20002F5F3F4F3CA72BA78DEA92E00E94F00268
:101A300018161906DCF58DEA92E00E94CE0290910C
:101A4000C601933010F48B3259F02DEF290F20315D
:101A500050F4803244F0E92FF0E0EE54FE4F8083E2
:101A60009F5F9093C6018091C6018031E9F685EBB6
:101A700091E00E94530BE5EBF1E0AFE1B1E081E1D1
:101A800001900D928A95E1F70E948F0A0E94860AC2
:101A9000E5EBF1E0DF0121E11D922A95E9F71092D3
:101AA000C6018EE791E00E94530BBECF8091B30137
:101AB0009091B401009709F07CC10091B10110919F
:101AC000B2010130110509F4BAC00230110509F460
:101AD00017C1012B09F068C18091AF019091B0014D
:101AE000892B09F06DC00E94E6040091AB011091B2
:101AF000AC012091AD013091AE01DC01CB01801B26
:101B0000910BA20BB30B853F9140A105B10508F4E1
:101B100070C00E94E6046093AB017093AC018093A7
:101B2000AD019093AE010E94D7068830910538F43C
:101B3000FC01E05DFE4F80818AA31BA20DC02FEF48
:101B40002AA30897969587958830910538F4FC016B
:101B5000E05DFE4F80818BA31CA20CC02BA30897D5
:101B6000969587958830910540F4FC01E05DFE4F25
:101B700080818CA31DA21EA21CC02FEF2CA308974E
:101B8000969587958830910530F4FC01E05DFE4F15
:101B900080818DA3F0CF2DA30897969587958830E7
:101BA000910530F4FC01E05DFE4F80818EA301C001
:101BB0002EA3CE0182960E944B080E94AD0719C049
:101BC0000E94D7064AE0BE016F5F7F4F0E949F1BB5
:101BD000EBA5FCA501900020E9F73197BF014BA5CB
:101BE0005CA5641B750BCE0101960E9496060E94AF
:101BF00060088091A9019091AA018530910539F47E
:101C000081E090E09093B2018093B1010BC08430E9
:101C1000910569F481E090E09093B0018093AF0169
:101C20000E94A9061092AA011092A901E7C0069786
:101C300009F0E4C01092B0011092AF01F3CF88E236
:101C400094E00E945D098091A9019091AA018530DC
:101C50009105E1F41092AA011092A9013092B2010B
:101C60002092B1010E94A906E7E0F1E00190002076
:101C7000E9F73197BF016750714087E091E00E941A
:101C800096061093060100930501B8C084309105B3
:101C900059F41092AA011092A901E091A801EE2333
:101CA00009F4ACC0E1500DC0069709F0A7C010922E
:101CB000AA011092A901E091A801E63008F09EC0A7
:101CC000EF5FE093A801F0E0CF01880F991FE80FC4
:101CD000F91FE75CFE4F1281E080F18088E294E01A
:101CE0000E94D609F0923204E09231041093280445
:101CF0001092290481E080932A0410922C047EC063
:101D00000E9460088091A9019091AA0185309105F7
:101D100029F41092AA011092A90146C086309105BB
:101D2000F9F41092AA011092A901809105019091F5
:101D30000601019709F462C081E090E090930601EA
:101D4000809305010E94A906E7E0F1E001900020E0
:101D5000E9F73197BF016750714087E091E021C0FA
:101D6000049709F04BC01092AA011092A90180912A
:101D7000050190910601892B09F440C010920601DB
:101D8000109205010E94A9060E94140AEBE9F2E0F4
:101D900001900020E9F73197BF016B5972408BE940
:101DA00092E00E9496062AC01092B2011092B101F0
:101DB00025C08130910589F483E394E00E945D0998
:101DC0008091350481111AC08091A6019091A701DC
:101DD0009093B4018093B30111C0029759F48DE13F
:101DE00094E00E945D098091A9019091AA01049755
:101DF000039720F41092B4011092B30181E593E0AF
:101E00009D8F8C8F80914E0390E09F8F8E8F80915D
:101E10001B0490E099A388A380914A03853009F0C0
:101E20005AC38091530390915403885891098D357A
:101E3000910588F480914E03843041F480915503DC
:101E4000909156038097479708F4EEC180914E0316
:101E5000843408F0D0C180914E038A3108F446C022
:101E60008091510390915203843F914050F41B8E16
:101E70001A8E6FEF7FEFCB016E8B7F8B888F998FE0
:101E80004FC0809153039091540385974B9770F501
:101E9000E7E5F3E082E090E040E050E0BA018C0139
:101EA0000F5F1F4F20914E0330E0021713076CF4B1
:101EB0009F0122503109D9012D913C9127503109C0
:101EC0002730310508F4EBC1C80101979595879536
:101ED0009B8F8A8F0C971CF41B8E1A8E07C04E8B1B
:101EE0005F8B688F798F84E090E0EDC280914E0324
:101EF0008A3108F445C08091510390915203803299
:101F0000934008F4B4CF8091530390915403C69743
:101F1000869708F4E0C134C04E8B5F8B688F798F51
:101F20008BE090E0D0C220813181255231092B31E4
:101F3000310508F0E0C1440F551F661F771F41604F
:101F4000029634968C010F5F1F4F20914E0330E0B4
:101F50000217130764F49F0122503109D9012D9112
:101F60003C912C5031092B303105E8F2C801019722
:101F7000959587959B8F8A8F0C9774F61B8E1A8E7A
:101F800080914E03823208F444C0809153039091B3
:101F9000540306970797E8F5E7E5F3E082E090E061
:101FA000C12CD12C76019C012F5F3F4F40914E03F5
:101FB00050E024173507E4F4DF0112974D915C914E
:101FC00011974E5151094731510508F0A1C1CC0C70
:101FD000DD1CEE1CFF1C6894C0F8408151813496D2
:101FE000435051094530510510F40296DCCFC90128
:101FF0000197959587959B8F8A8F40971CF41B8E30
:102000001A8E07C0CE8ADF8AE88EF98E8CE090E0C7
:102010005AC21AA619A681E090E098A78FA38091D2
:102020004E038D3008F474C029E733E0AE01475DFC
:102030005F4FBE01695D7F4FCE0142960E94DF0A6D
:10204000892B09F065C029E733E0AE01475D5F4F9A
:10205000BE01695D7F4FCE0142960E94DF0A019763
:1020600009F056C029E733E0AE01475D5F4FBE017E
:10207000695D7F4FCE0142960E94DF0A892B09F0ED
:1020800047C0812C912C540100E010E080914E0358
:1020900090E02FA138A5281739078CF529E733E000
:1020A000AE01475D5F4FBE01695D7F4FCE01429635
:1020B0000E94DF0A7C0129E733E0AE01475D5F4FF4
:1020C000BE01695D7F4FCE0142960E94DF0AB1E0FA
:1020D000EB16F10449F4892BD9F4880C991CAA1C3D
:1020E000BB1C689480F808C0EF2891F4019781F434
:1020F000880C991CAA1CBB1C0F5F1F4FC7CF1B8FDE
:102100000A8F8E8A9F8AA88EB98E81E090E0DBC10B
:102110001AA619A681E090E098A78FA38E8D9F8DB7
:10212000181619060CF05EC0EC8DFD8D38A62FA296
:102130008281938189974E9708F054C083E090E0A4
:1021400098A78FA3848195810B970A9708F04AC0BE
:102150002CEB31E0AE01475D5F4FBE01695D7F4F03
:10216000CE0142960E94DF0A892BE1F52CEB31E08B
:10217000AE01475D5F4FBE01695D7F4FCE01429664
:102180000E94DF0A019771F5812C912C540100E027
:1021900010E02FA138A58E8D9F8D281739070CF0E0
:1021A00000C12CEB31E0AE01475D5F4FBE01695DC0
:1021B0007F4FCE0142960E94DF0A6C010330110569
:1021C00009F0B3C02CEB31E0AE01475D5F4FBE01BB
:1021D000695D7F4FCE0142960E94DF0AC816D9067C
:1021E00009F4A3C0EC8DFD8D82819381C6978697FB
:1021F00008F4E0C090C48091550390915603825436
:1022000091098E9708F027CE80E090E040E050E002
:10221000BA01FC01E95AFC4F208131812950310972
:102220002930310598F017CE8091570390915803CB
:102230000997099708F00ACE1B8E1A8E8FEF9FEF31
:10224000DC018E8B9F8BA88FB98F62C4FC01E75A8B
:10225000FC4F208131812751310922313105C8F0ED
:1022600020813181265031092730310508F0F3CD26
:10227000440F551F661F771F04968038910549F655
:1022800080E290E09B8F8A8F4E8B5F8B688F798F77
:102290003FC4440F551F661F771F4160EDCF20815B
:1022A0003181235131092F30310540F4440F551F3E
:1022B000661F771F416002963496F1CD20813181EF
:1022C0002A5031092930310508F010CE440F551F2E
:1022D000661F771FF0CF8091550390915603C697E4
:1022E000869708F04DCEE9E5F3E083E090E040E02A
:1022F00050E0BA0127CE208131812C5031092A309B
:10230000310508F03DCE440F551F661F771F18CECC
:102310004D915C914C5051094B30510508F079CEEC
:10232000CC0CDD1CEE1CFF1C58CE2CEB31E0AE01BA
:10233000475D5F4FBE01695D7F4FCE0142960E94AF
:10234000DF0A7C010330110581F42CEB31E0AE0192
:10235000475D5F4FBE01695D7F4FCE0142960E948F
:10236000DF0AE816F90609F03DCFC114D10459F48B
:10237000EA94EF2809F036CF880C991CAA1CBB1CE4
:10238000689480F80BC0CA94CD2809F02BCFEF28B1
:1023900009F028CF880C991CAA1CBB1C0F5F1F4F8B
:1023A000F8CE1B8F0A8F8E8A9F8AA88EB98E3B8AA1
:1023B0002A8A31C3848195814B97459708F0ABC336
:1023C0007F0136E0E30EF11C6F0146ECC40ED11C18
:1023D00020E030E040E050E060E070E080E090E03D
:1023E000D7010D911C91D8011997189708F093C344
:1023F000D70112960D911C911397D80151971D97F3
:10240000E0F401E00E94EA182160B4E0EB0EF11C58
:10241000EC14FD0429F72E8B3F8B488F598F00E277
:102420000E9405192C8B3D8B85E090E09B8B8A8B5D
:1024300080E390E09B8F8A8FEEC2D70112960D91B8
:102440001C911397D8011497159708F064C301E005
:102450000E94EA18DACFA80142505109DA014D91E1
:102460005C91495051094830510508F002C4BC0143
:102470006F5F7F4FD8014D915C91475051094730B4
:10248000510508F0D2C5220F331F216002960C5F60
:102490001F4F40914E0350E0445051098417950757
:1024A000D4F20197959587959B8F8A8F8A970CF424
:1024B000E0C3C901330FAA0BBB0B8E8B9F8BA88F78
:1024C000B98F89E090E09B8B8A8BA5C282E08093D4
:1024D0004A0310924E0380E090E0019709F075C125
:1024E000D301C20188279927AF70BB279D01A63071
:1024F000B1053CF4A430B10574F4119709F465C139
:1025000025C0AA30B105A1F0AB30B10521F0179775
:1025100009F45BC11BC0D301C201807FAA27BB277E
:1025200004E0B695A795979587950A95D1F710C0C1
:10253000D301C2018827907FAA27BB271CE0B6954C
:10254000A795979587951A95D1F7BEC080E090E042
:102550002A30310509F4B8C05CF42430310509F49F
:102560004DC02630310509F030C101E010E097C0C0
:102570002C30310569F00CF4D4C02D30310509F050
:1025800024C182E492E49B8B8A8BE9E5F2E004C1EA
:1025900060E072E281E090E00E9427098F7090E095
:1025A000A0E0B0E0BC01CD01726281600E943E07F4
:1025B00064E170E080E090E00E94AC04EEEFFFE7A1
:1025C000C590D490F4E0CC0CDD1CFA95E1F7E12C39
:1025D000F12C3BE0E32AC701B6010E9427098F7066
:1025E000A7019601282BCA01B9010E943E076AE0A3
:1025F00070E080E090E00E94AC04E7C09170209110
:102600009101309192012817390761F0909392015E
:102610008093910161E971E080EC90E00E941707DE
:102620000E94860AC0909101D0909201E4E0CC0C07
:10263000DD1CEA95E1F7E12CF12C35E0E32AC70136
:10264000B6010E9427098F70A7019601282BCA01A5
:10265000B9010E943E07B9C0680184E0CC0CDD1CC2
:102660008A95E1F7E12CF12CB7E0EB2AC701B6011E
:102670000E9427098F70A7019601282BCA01B90172
:102680000E943E0764E170E080E090E00E94AC04AC
:102690000F5F1F4F013032E0130709F496C0980115
:1026A0003170F90173E0F695E7957A95E1F7E75A0D
:1026B000FD4F808190E0277002C0959587952A95FF
:1026C000E2F780FFE5CFC8CF873008F086E090E0E2
:1026D000FC01EE0FFF1F8E0F9F1FFC01E75CFE4FFA
:1026E0001281E080F1808DE194E00E94D609F092A1
:1026F0002704E092260410931D0410921E0481E02A
:1027000080931F04109221048091B3019091B40131
:102710009093A7018093A6013092B4012092B30157
:1027200054C0009709F451C09170FC0153E0F69534
:10273000E7955A95E1F7E75AFD4F40818770242FBE
:1027400030E0082E02C0359527950A94E2F720FF65
:10275000C2C183E394E00E94D6098CE092E090939A
:102760003D0480933C0485E080933304109234044C
:1027700081E080933504809337048091B301909178
:10278000B4019093A7018093A60181E090E090931B
:10279000B4018093B30119C011924DA94E13FCCF1F
:1027A0001092920110929101BE016E5E7F4F84EDF6
:1027B00090E00E94170761E971E080EC90E00E94D0
:1027C00017070E94B70A0E94860A0E94E6046B015E
:1027D0007C010E9489040091A2011091A301209123
:1027E000A4013091A501DC01CB01801B910BA20B50
:1027F000B30B8D329140A105B10560F00E948904B0
:102800006093A2017093A3018093A4019093A5010A
:102810000E94DB0780919E0190919F01A091A001F1
:10282000B091A101A7019601281B390B4A0B5B0B44
:10283000293C31054105510508F4A7C00E94E60472
:1028400060939E0170939F018093A0019093A101DA
:102850008091A9019091AA018230910509F46BC081
:1028600034F4009761F0019709F454C08AC08330B2
:10287000910509F471C007970CF487C082C080915C
:102880009D01811116C06AE070E08EE00E941E0A70
:1028900020919B0130919C01821B930B8536910501
:1028A00034F081E090E09093AA018093A90181E047
:1028B00015C08130B1F46AE070E08FE00E941E0A1A
:1028C0002091990130919A01821B930B85369105D5
:1028D00024F03092AA012092A90182E080939D0108
:1028E00054C08230A1F46AE070E080E10E941E0AC8
:1028F0002091970130919801821B930B85369105A9
:1029000034F083E090E09093AA018093A9011092A3
:102910009D013BC06AE070E08EE00E941E0A20919B
:102920009B0130919C01821B930B843691056CF5C1
:1029300084E090E021C06AE070E08FE00E941E0A0F
:102940002091990130919A01821B930B8436910555
:10295000E4F485E090E010C06AE070E080E10E945D
:102960001E0A2091970130919801821B930B8436A7
:1029700091055CF486E090E09093AA018093A90110
:1029800004C01092AA011092A90180919301909124
:102990009401A0919501B0919601B701A601481B41
:1029A000590B6A0B7B0BDB01CA0189399A43A105DC
:1029B000B10568F1C0929301D0929401E092950123
:1029C000F09296018EEF9FE7FC0125913491232B25
:1029D000F1F0FC01C590D49044E0CC0CDD1C4A958C
:1029E000E1F7E12CF12C6BE0E62AC701B6010E9469
:1029F00027098F70A7019601282BCA01B9010E94EF
:102A00003E0764E170E080E090E00E94AC040E9428
:102A100090030C94140D8A899B89049741F082E0FD
:102A200080934A0310924E0382E090E056CD8A8D47
:102A30009B8D449741F082E080934A0310924E03AD
:102A400083E090E04ACD4E885F88688C798C109244
:102A50009001C301B201662777278F7099270E94E2
:102A60001B09D301C2012CE0B695A79597958795D0
:102A70002A95D1F78F700E941B09D301C2018827C4
:102A80009F70AA27BB27892F0E941B09D301C2016F
:102A9000807F9927AA27BB2734E0B695A7959795FD
:102AA00087953A95D1F70E941B09842D8F700E945B
:102AB0001B09882341F082E080934A0310924E0361
:102AC00084E090E00ACD82E080934A0310924E03A6
:102AD00081E090E002CD21E030E0B90102C0660F54
:102AE000771F8A95E2F7CB01842B481729F0808362
:102AF0000E94B70A0E94860A83E394E00E94D609E6
:102B00008AE292E090933D0480933C048AE02CCECC
:102B100083E090E0D8CC80914E03893370F18281BC
:102B20009381895791098335910508F442C125C0E5
:102B3000D90112966D917C9113976651710961319B
:102B4000710508F05CC1D701C601880F991FAA1F43
:102B5000BB1F6C017D016894C0F84E5F5F4F2C5F16
:102B60003F4F4B33510509F433C1D9016D917C912D
:102B70006A50710969307105D8F280914E03823232
:102B800031F4828193810A97099708F448C18281C0
:102B900093818957910983359105D0F480914E0333
:102BA0008132B0F084819581CA97899788F49F011A
:102BB0002A5F3F4FC12CD12C760143E050E0D90170
:102BC0006D917C916A5071096930710508F440C1BA
:102BD000828193818C549109C59778F480914E033A
:102BE000843031F4848195818097479708F48AC1B5
:102BF00080914E03843408F06CC180914E0386347A
:102C000060F1828193810C970B9708F4BDC125C0B8
:102C1000D90112966D917C9113976E5171096731AC
:102C2000710508F0E3C1D701C601880F991FAA1FDB
:102C3000BB1F6C017D016894C0F84E5F5F4F2C5F35
:102C40003F4F4534510509F4BAC1D9016D917C91CA
:102C50006C5071096B307105D8F280914E03883544
:102C600040F082819381855891098B35910508F454
:102C7000CDC180914E038032E1F482819381069729
:102C80000697B8F4848195810997099790F49F017C
:102C90002A5F3F4FBF01625C7F4FC12CD12C760170
:102CA000D9014D915C91465051094630510508F4C7
:102CB000C9C12E8D3F8D38AB2FA7263031050CF4BE
:102CC00005CC8F010A5F1F4F55ECC52E5DE9D52E4F
:102CD0005CE1E52E51E8F52E43E050E05EA74DA7FC
:102CE000D8016D917C91F8013497A080B18080E08B
:102CF00090E00E94721A69AB7AAB8BAB9CABB501CA
:102D000080E090E00E94721A4B015C012DEC3CECDB
:102D10004CE45FE30E94241B9B01AC0169A97AA9E2
:102D20008BA99CA90E94C51987FD19C02DEC3CEC0C
:102D30004CE45FE369A97AA98BA99CA90E94241B92
:102D40009B01AC01C501B4010E94C519E82F880F91
:102D5000FF0BEE27FF0FEE1FFF27319602C0E0E0CA
:102D6000F0E0A701960163E971E080E091E00E9444
:102D7000B0186F01FF0FEE08FF08C626D726E82619
:102D8000F926EDA5FEA53196FEA7EDA70E5F1F4F14
:102D90002FA538A9E217F30709F0A2CFCE8ADF8A60
:102DA000E88EF98E80E290E09B8F8A8F8FEF9FEF05
:102DB0008ACB84819581CA97899708F0DECE9F01DE
:102DC0002A5F3F4FC12CD12C760143E050E0CDCE9D
:102DD0009F012A583F4FD9012D913C912A5031092A
:102DE0002930310508F0C9CE2CE130E03B8F2A8F25
:102DF000CE8ADF8AE88EF98E8AE090E064CBD90132
:102E000012966D917C911397665071096730710528
:102E100008F0B3CECC0CDD1CEE1CFF1C9ECE209126
:102E20004E03CF01820F911D820F911DDC0112977D
:102E30008D919C910A97099708F0A9CE1B8E1A8E46
:102E40002FEF3FEFA9012E8B3F8B488F598F2FC15A
:102E5000D90112966D917C91139766517109613178
:102E6000710538F5D701C601880F991FAA1FBB1F2E
:102E70006C017D016894C0F84E5F5F4F2C5F3F4F3F
:102E80004332510509F09BCE9F012A5B3F4FD90188
:102E90002D913C912A5031092930310508F098CE06
:102EA00020E130E03B8F2A8FCE8ADF8AE88EF98ED0
:102EB000FEC0D90112966D917C91139766507109ED
:102EC0006730710508F084CECC0CDD1CEE1CFF1CB5
:102ED000D3CF8481958189549109C39708F08DCE11
:102EE0009F012A5F3F4FBF016A577F4FC12CD12CF2
:102EF0007601D9014D915C914950510949305105F4
:102F000088F07BCE868197810997099708F070CE6B
:102F10001B8E1A8E4FEF5FEFBA014E8B5F8B688F5F
:102F2000798FC8C0D90112964D915C911397465183
:102F3000510941315105C0F4D701C601880F991FCD
:102F4000AA1FBB1F6C017D016894C0F82C5F3F4F26
:102F50002617370771F620E230E03B8F2A8FCE8AA2
:102F6000DF8AE88EF98EA6C0D90112964D915C9148
:102F70001397465051094730510508F03ECECC0C0E
:102F8000DD1CEE1CFF1CE2CF848195810997099717
:102F900008F063CE868197818C974F9708F05DCEBD
:102FA0008085918589974D9708F057CE9F01265FC0
:102FB0003F4FC12CD12C760145E050E046CE9F0119
:102FC00026573F4FD9012D913C912C5031092B3080
:102FD000310508F042CE20E230E03B8F2A8FCE8AC6
:102FE000DF8AE88EF98E88E090E06DCAD9011296EA
:102FF0006D917C911397695071096930710508F0E2
:103000002CCECC0CDD1CEE1CFF1C17CE84819581D0
:10301000825491098E9708F02CCE8F01045C1F4FCB
:103020008DE190E020E030E034CAD8014D915C9110
:10303000485151094231510510F0CB0132CA220FDB
:10304000331F24CAD90112964D915C9113974951AF
:10305000510943315105D8F4D701C601880F991F92
:10306000AA1FBB1F6C017D016894C0F82C5F3F4F05
:103070002617370709F014CE2EE030E03B8F2A8F59
:10308000CE8ADF8AE88EF98E8FE090E01CCAD901E3
:1030900012964D915C911397495051094930510551
:1030A00008F007CECC0CDD1CEE1CFF1CDFCF86E049
:1030B00090E009CA87E090E006CAEDEAF2E01382E8
:1030C000128288EE93E0A0E0B0E084839583A6832B
:1030D000B78382E791E09183808385EC90E09587C8
:1030E000848784EC90E09787868780EC90E0918BD2
:1030F000808B81EC90E0938B828B82EC90E0958BBF
:10310000848B86EC90E0978B868B118E128E138EBB
:10311000148EEAE4F3E08CE081831382E3E3F4E0CD
:1031200010821182128213821482158216821782F3
:103130001086E8E2F4E01082118212821382148277
:103140001582168217821086EDE1F4E0108211825A
:1031500012821382148215821682178210860895B5
:10316000DB018F939F930E94DF18BF91AF91A29FC5
:10317000800D911DA39F900DB29F900D1124089575
:10318000052E97FB1EF400940E94D71857FD07D018
:103190000E94211907FC03D04EF40C94D7185095C7
:1031A0004095309521953F4F4F4F5F4F0895909533
:1031B0008095709561957F4F8F4F9F4F08950E9426
:1031C0004919A59F900DB49F900DA49F800D911D4E
:1031D000112408950F93083090F0982F872F762FA1
:1031E000652F542F432F322F22270850F4CF220F60
:1031F000331F441F551F661F771F881F991F0A958D
:10320000B2F70F91089597FB10F8169400080F93EA
:10321000083098F00850232F342F452F562F672F52
:10322000782F892F902DF4CF0594979587957795D2
:10323000679557954795379527950A95AAF70F9162
:103240000895A1E21A2EAA1BBB1BFD010DC0AA1FE7
:10325000BB1FEE1FFF1FA217B307E407F50720F0FF
:10326000A21BB30BE40BF50B661F771F881F991F7A
:103270001A9469F760957095809590959B01AC01C3
:10328000BD01CF010895EE0FFF1F0590F491E02DD1
:103290000994A29FB001B39FC001A39F700D811D2F
:1032A0001124911DB29F700D811D1124911D08954F
:1032B0005058BB27AA270E9470190C94EA1A0E9442
:1032C000DC1A38F00E94E31A20F039F49F3F19F419
:1032D00026F40C94D91A0EF4E095E7FB0C94D31A5B
:1032E000E92F0E94FB1A58F3BA1762077307840785
:1032F000950720F079F4A6F50C941D1B0EF4E095CB
:103300000B2EBA2FA02D0B01B90190010C01CA019F
:10331000A0011124FF27591B99F0593F50F4503E4A
:1033200068F11A16F040A22F232F342F4427585F3C
:10333000F3CF469537952795A795F0405395C9F754
:103340007EF41F16BA0B620B730B840BBAF091500C
:10335000A1F0FF0FBB1F661F771F881FC2F70EC0AB
:10336000BA0F621F731F841F48F48795779567957E
:10337000B795F7959E3F08F0B0CF9395880F08F06A
:103380009927EE0F9795879508950E94AF1A08F434
:1033900081E008950E94DE190C94EA1A0E94E31A53
:1033A00058F00E94DC1A40F029F45F3F29F00C9499
:1033B000D31A51110C941E1B0C94D91A0E94FB1A9B
:1033C00068F39923B1F3552391F3951B550BBB2754
:1033D000AA2762177307840738F09F5F5F4F220F99
:1033E000331F441FAA1FA9F335D00E2E3AF0E0E890
:1033F00032D091505040E695001CCAF72BD0FE2FDA
:1034000029D0660F771F881FBB1F2617370748076D
:10341000AB07B0E809F0BB0B802DBF01FF27935825
:103420005F4F3AF09E3F510578F00C94D31A0C94FC
:103430001E1B5F3FE4F3983ED4F38695779567951E
:10344000B795F7959F5FC9F7880F911D969587955A
:1034500097F90895E1E0660F771F881FBB1F621779
:1034600073078407BA0720F0621B730B840BBA0B37
:10347000EE1F88F7E09508950E94431A6894B111F1
:103480000C941E1B08950E94031B88F09F5798F010
:10349000B92F9927B751B0F0E1F0660F771F881F59
:1034A000991F1AF0BA95C9F714C0B13091F00E9473
:1034B0001D1BB1E008950C941D1B672F782F8827E2
:1034C000B85F39F0B93FCCF3869577956795B3959A
:1034D000D9F73EF490958095709561957F4F8F4F09
:1034E0009F4F0895E89409C097FB3EF4909580950E
:1034F000709561957F4F8F4F9F4F9923A9F0F92FBA
:1035000096E9BB279395F695879577956795B79537
:10351000F111F8CFFAF4BB0F11F460FF1BC06F5F1D
:103520007F4F8F4F9F4F16C0882311F096E911C02F
:10353000772321F09EE8872F762F05C0662371F050
:1035400096E8862F70E060E02AF09A95660F771F64
:10355000881FDAF7880F9695879597F90895990F40
:103560000008550FAA0BE0E8FEEF16161706E8074D
:10357000F907C0F012161306E407F50798F0621B6E
:10358000730B840B950B39F40A2661F0232B242B43
:10359000252B21F408950A2609F4A140A6958FEF62
:1035A000811D811D089597F99F6780E870E060E0B4
:1035B00008959FEF80EC089500240A9416161706CC
:1035C00018060906089500240A9412161306140614
:1035D00005060895092E0394000C11F4882352F077
:1035E000BB0F40F4BF2B11F460FF04C06F5F7F4F2F
:1035F0008F4F9F4F089557FD9058440F551F59F016
:103600005F3F71F04795880F97FB991F61F09F3FCF
:1036100079F087950895121613061406551FF2CFF8
:103620004695F1DF08C0161617061806991FF1CF48
:1036300086957105610508940895E894BB2766276F
:103640007727CB0197F908950E94371B0C94EA1A4B
:103650000E94DC1A38F00E94E31A20F0952311F042
:103660000C94D31A0C94D91A11240C941E1B0E948A
:10367000FB1A70F3959FC1F3950F50E0551F629FA1
:10368000F001729FBB27F00DB11D639FAA27F00DBB
:10369000B11DAA1F649F6627B00DA11D661F829FE2
:1036A0002227B00DA11D621F739FB00DA11D621FC7
:1036B000839FA00D611D221F749F3327A00D611DE4
:1036C000231F849F600D211D822F762F6A2F1124C6
:1036D0009F5750409AF0F1F088234AF0EE0FFF1FF9
:1036E000BB1F661F771F881F91505040A9F79E3F50
:1036F000510580F00C94D31A0C941E1B5F3FE4F329
:10370000983ED4F3869577956795B795F795E795A5
:103710009F5FC1F7FE2B880F911D9695879597F9AE
:10372000089581E090E0F8940C94EA1BFB01DC0121
:1037300002C001900D9241505040D8F70895BB2728
:103740004A3031F4992322F4BDE2909581959F4F40
:103750000C94AB1BBB27FB015527AA27880F991F89
:10376000AA1FA41710F0A41B83955051B9F7A05DB0
:10377000AA3308F0A95DA193009779F7B111B1932D
:103780001192CB010C94C41BDC01FC01672F7191D9
:103790007723E1F7329704C07C916D937083629137
:1037A000AE17BF07C8F30895F999FECF92BD81BD4A
:1037B000F89A992780B50895262FF999FECF1FBA58
:1037C00092BD81BD20BD0FB6F894FA9AF99A0FBE4A
:0837D00001960895F894FFCF63
:1037D800AA55FFCC3301004D414B45522046414983
:1037E8005245204F54544157412032303136005908
:1037F8004F5552204E414D45204845524521210004
:10380800000103070F1F3F7FFFC40106E801068E72
:103818000109580109400104D4001268001200038C
:1038280006050C0F0A090B080D0E0704010200011A
:103838000102010202030102020302030304000061
:1038480000002703A302F002CE02E2026E034E65D7
:1038580077206E616D652073657421000D0A000084
:00000001FF
